{
  "_format": "hh-sol-artifact-1",
  "contractName": "CarbonCredits",
  "sourceName": "contracts/CarbonCredits.sol",
  "abi": [
    {
      "inputs": [],
      "stateMutability": "nonpayable",
      "type": "constructor"
    },
    {
      "inputs": [
        {
          "internalType": "address",
          "name": "spender",
          "type": "address"
        },
        {
          "internalType": "uint256",
          "name": "allowance",
          "type": "uint256"
        },
        {
          "internalType": "uint256",
          "name": "needed",
          "type": "uint256"
        }
      ],
      "name": "ERC20InsufficientAllowance",
      "type": "error"
    },
    {
      "inputs": [
        {
          "internalType": "address",
          "name": "sender",
          "type": "address"
        },
        {
          "internalType": "uint256",
          "name": "balance",
          "type": "uint256"
        },
        {
          "internalType": "uint256",
          "name": "needed",
          "type": "uint256"
        }
      ],
      "name": "ERC20InsufficientBalance",
      "type": "error"
    },
    {
      "inputs": [
        {
          "internalType": "address",
          "name": "approver",
          "type": "address"
        }
      ],
      "name": "ERC20InvalidApprover",
      "type": "error"
    },
    {
      "inputs": [
        {
          "internalType": "address",
          "name": "receiver",
          "type": "address"
        }
      ],
      "name": "ERC20InvalidReceiver",
      "type": "error"
    },
    {
      "inputs": [
        {
          "internalType": "address",
          "name": "sender",
          "type": "address"
        }
      ],
      "name": "ERC20InvalidSender",
      "type": "error"
    },
    {
      "inputs": [
        {
          "internalType": "address",
          "name": "spender",
          "type": "address"
        }
      ],
      "name": "ERC20InvalidSpender",
      "type": "error"
    },
    {
      "inputs": [
        {
          "internalType": "address",
          "name": "owner",
          "type": "address"
        }
      ],
      "name": "OwnableInvalidOwner",
      "type": "error"
    },
    {
      "inputs": [
        {
          "internalType": "address",
          "name": "account",
          "type": "address"
        }
      ],
      "name": "OwnableUnauthorizedAccount",
      "type": "error"
    },
    {
      "inputs": [],
      "name": "ReentrancyGuardReentrantCall",
      "type": "error"
    },
    {
      "anonymous": false,
      "inputs": [
        {
          "indexed": true,
          "internalType": "address",
          "name": "owner",
          "type": "address"
        },
        {
          "indexed": true,
          "internalType": "address",
          "name": "spender",
          "type": "address"
        },
        {
          "indexed": false,
          "internalType": "uint256",
          "name": "value",
          "type": "uint256"
        }
      ],
      "name": "Approval",
      "type": "event"
    },
    {
      "anonymous": false,
      "inputs": [
        {
          "indexed": true,
          "internalType": "uint256",
          "name": "orderId",
          "type": "uint256"
        },
        {
          "indexed": true,
          "internalType": "address",
          "name": "fulfiller",
          "type": "address"
        }
      ],
      "name": "OrderFulfilled",
      "type": "event"
    },
    {
      "anonymous": false,
      "inputs": [
        {
          "indexed": true,
          "internalType": "uint256",
          "name": "orderId",
          "type": "uint256"
        },
        {
          "indexed": true,
          "internalType": "address",
          "name": "user",
          "type": "address"
        },
        {
          "indexed": false,
          "internalType": "bool",
          "name": "isBuyOrder",
          "type": "bool"
        },
        {
          "indexed": false,
          "internalType": "uint256",
          "name": "amount",
          "type": "uint256"
        },
        {
          "indexed": false,
          "internalType": "uint256",
          "name": "price",
          "type": "uint256"
        }
      ],
      "name": "OrderPlaced",
      "type": "event"
    },
    {
      "anonymous": false,
      "inputs": [
        {
          "indexed": true,
          "internalType": "address",
          "name": "previousOwner",
          "type": "address"
        },
        {
          "indexed": true,
          "internalType": "address",
          "name": "newOwner",
          "type": "address"
        }
      ],
      "name": "OwnershipTransferred",
      "type": "event"
    },
    {
      "anonymous": false,
      "inputs": [
        {
          "indexed": true,
          "internalType": "address",
          "name": "from",
          "type": "address"
        },
        {
          "indexed": true,
          "internalType": "address",
          "name": "to",
          "type": "address"
        },
        {
          "indexed": false,
          "internalType": "uint256",
          "name": "value",
          "type": "uint256"
        }
      ],
      "name": "Transfer",
      "type": "event"
    },
    {
      "inputs": [
        {
          "internalType": "address",
          "name": "owner",
          "type": "address"
        },
        {
          "internalType": "address",
          "name": "spender",
          "type": "address"
        }
      ],
      "name": "allowance",
      "outputs": [
        {
          "internalType": "uint256",
          "name": "",
          "type": "uint256"
        }
      ],
      "stateMutability": "view",
      "type": "function"
    },
    {
      "inputs": [
        {
          "internalType": "address",
          "name": "spender",
          "type": "address"
        },
        {
          "internalType": "uint256",
          "name": "value",
          "type": "uint256"
        }
      ],
      "name": "approve",
      "outputs": [
        {
          "internalType": "bool",
          "name": "",
          "type": "bool"
        }
      ],
      "stateMutability": "nonpayable",
      "type": "function"
    },
    {
      "inputs": [
        {
          "internalType": "address",
          "name": "account",
          "type": "address"
        }
      ],
      "name": "balanceOf",
      "outputs": [
        {
          "internalType": "uint256",
          "name": "",
          "type": "uint256"
        }
      ],
      "stateMutability": "view",
      "type": "function"
    },
    {
      "inputs": [
        {
          "internalType": "uint256",
          "name": "value",
          "type": "uint256"
        }
      ],
      "name": "burn",
      "outputs": [],
      "stateMutability": "nonpayable",
      "type": "function"
    },
    {
      "inputs": [
        {
          "internalType": "address",
          "name": "account",
          "type": "address"
        },
        {
          "internalType": "uint256",
          "name": "value",
          "type": "uint256"
        }
      ],
      "name": "burnFrom",
      "outputs": [],
      "stateMutability": "nonpayable",
      "type": "function"
    },
    {
      "inputs": [
        {
          "internalType": "uint256",
          "name": "amount",
          "type": "uint256"
        }
      ],
      "name": "buyCredits",
      "outputs": [],
      "stateMutability": "payable",
      "type": "function"
    },
    {
      "inputs": [],
      "name": "decimals",
      "outputs": [
        {
          "internalType": "uint8",
          "name": "",
          "type": "uint8"
        }
      ],
      "stateMutability": "view",
      "type": "function"
    },
    {
      "inputs": [
        {
          "internalType": "uint256",
          "name": "orderId",
          "type": "uint256"
        }
      ],
      "name": "fulfillOrder",
      "outputs": [],
      "stateMutability": "nonpayable",
      "type": "function"
    },
    {
      "inputs": [],
      "name": "name",
      "outputs": [
        {
          "internalType": "string",
          "name": "",
          "type": "string"
        }
      ],
      "stateMutability": "view",
      "type": "function"
    },
    {
      "inputs": [
        {
          "internalType": "uint256",
          "name": "",
          "type": "uint256"
        }
      ],
      "name": "orders",
      "outputs": [
        {
          "internalType": "address",
          "name": "user",
          "type": "address"
        },
        {
          "internalType": "uint256",
          "name": "amount",
          "type": "uint256"
        },
        {
          "internalType": "bool",
          "name": "isBuyOrder",
          "type": "bool"
        },
        {
          "internalType": "uint256",
          "name": "price",
          "type": "uint256"
        }
      ],
      "stateMutability": "view",
      "type": "function"
    },
    {
      "inputs": [],
      "name": "owner",
      "outputs": [
        {
          "internalType": "address",
          "name": "",
          "type": "address"
        }
      ],
      "stateMutability": "view",
      "type": "function"
    },
    {
      "inputs": [
        {
          "internalType": "uint256",
          "name": "amount",
          "type": "uint256"
        },
        {
          "internalType": "bool",
          "name": "isBuyOrder",
          "type": "bool"
        }
      ],
      "name": "placeOrder",
      "outputs": [],
      "stateMutability": "payable",
      "type": "function"
    },
    {
      "inputs": [],
      "name": "pricePerCredit",
      "outputs": [
        {
          "internalType": "uint256",
          "name": "",
          "type": "uint256"
        }
      ],
      "stateMutability": "view",
      "type": "function"
    },
    {
      "inputs": [],
      "name": "renounceOwnership",
      "outputs": [],
      "stateMutability": "nonpayable",
      "type": "function"
    },
    {
      "inputs": [
        {
          "internalType": "uint256",
          "name": "newPrice",
          "type": "uint256"
        }
      ],
      "name": "setPricePerCredit",
      "outputs": [],
      "stateMutability": "nonpayable",
      "type": "function"
    },
    {
      "inputs": [],
      "name": "symbol",
      "outputs": [
        {
          "internalType": "string",
          "name": "",
          "type": "string"
        }
      ],
      "stateMutability": "view",
      "type": "function"
    },
    {
      "inputs": [],
      "name": "totalSupply",
      "outputs": [
        {
          "internalType": "uint256",
          "name": "",
          "type": "uint256"
        }
      ],
      "stateMutability": "view",
      "type": "function"
    },
    {
      "inputs": [
        {
          "internalType": "address",
          "name": "to",
          "type": "address"
        },
        {
          "internalType": "uint256",
          "name": "value",
          "type": "uint256"
        }
      ],
      "name": "transfer",
      "outputs": [
        {
          "internalType": "bool",
          "name": "",
          "type": "bool"
        }
      ],
      "stateMutability": "nonpayable",
      "type": "function"
    },
    {
      "inputs": [
        {
          "internalType": "address",
          "name": "from",
          "type": "address"
        },
        {
          "internalType": "address",
          "name": "to",
          "type": "address"
        },
        {
          "internalType": "uint256",
          "name": "value",
          "type": "uint256"
        }
      ],
      "name": "transferFrom",
      "outputs": [
        {
          "internalType": "bool",
          "name": "",
          "type": "bool"
        }
      ],
      "stateMutability": "nonpayable",
      "type": "function"
    },
    {
      "inputs": [
        {
          "internalType": "address",
          "name": "newOwner",
          "type": "address"
        }
      ],
      "name": "transferOwnership",
      "outputs": [],
      "stateMutability": "nonpayable",
      "type": "function"
    }
  ],
  "bytecode": "0x60806040523480156200001157600080fd5b50336040518060400160405280601681526020017f417262697472756d20436172626f6e20437265646974000000000000000000008152506040518060400160405280600381526020017f414343000000000000000000000000000000000000000000000000000000000081525081600390816200009091906200078e565b508060049081620000a291906200078e565b5050506001600581905550600073ffffffffffffffffffffffffffffffffffffffff168173ffffffffffffffffffffffffffffffffffffffff1603620001225760006040517f1e4fbdf7000000000000000000000000000000000000000000000000000000008152600401620001199190620008ba565b60405180910390fd5b62000133816200018860201b60201c565b506200017233620001496200024e60201b60201c565b600a62000157919062000a67565b6103e862000166919062000ab8565b6200025760201b60201c565b68056bc75e2d6310000060078190555062000ba9565b6000600660009054906101000a900473ffffffffffffffffffffffffffffffffffffffff16905081600660006101000a81548173ffffffffffffffffffffffffffffffffffffffff021916908373ffffffffffffffffffffffffffffffffffffffff1602179055508173ffffffffffffffffffffffffffffffffffffffff168173ffffffffffffffffffffffffffffffffffffffff167f8be0079c531659141344cd1fd0a4f28419497f9722a3daafe3b4186f6b6457e060405160405180910390a35050565b60006012905090565b600073ffffffffffffffffffffffffffffffffffffffff168273ffffffffffffffffffffffffffffffffffffffff1603620002cc5760006040517fec442f05000000000000000000000000000000000000000000000000000000008152600401620002c39190620008ba565b60405180910390fd5b620002e060008383620002e460201b60201c565b5050565b600073ffffffffffffffffffffffffffffffffffffffff168373ffffffffffffffffffffffffffffffffffffffff16036200033a5780600260008282546200032d919062000b03565b9250508190555062000410565b60008060008573ffffffffffffffffffffffffffffffffffffffff1673ffffffffffffffffffffffffffffffffffffffff16815260200190815260200160002054905081811015620003c9578381836040517fe450d38c000000000000000000000000000000000000000000000000000000008152600401620003c09392919062000b4f565b60405180910390fd5b8181036000808673ffffffffffffffffffffffffffffffffffffffff1673ffffffffffffffffffffffffffffffffffffffff16815260200190815260200160002081905550505b600073ffffffffffffffffffffffffffffffffffffffff168273ffffffffffffffffffffffffffffffffffffffff16036200045b5780600260008282540392505081905550620004a8565b806000808473ffffffffffffffffffffffffffffffffffffffff1673ffffffffffffffffffffffffffffffffffffffff168152602001908152602001600020600082825401925050819055505b8173ffffffffffffffffffffffffffffffffffffffff168373ffffffffffffffffffffffffffffffffffffffff167fddf252ad1be2c89b69c2b068fc378daa952ba7f163c4a11628f55a4df523b3ef8360405162000507919062000b8c565b60405180910390a3505050565b600081519050919050565b7f4e487b7100000000000000000000000000000000000000000000000000000000600052604160045260246000fd5b7f4e487b7100000000000000000000000000000000000000000000000000000000600052602260045260246000fd5b600060028204905060018216806200059657607f821691505b602082108103620005ac57620005ab6200054e565b5b50919050565b60008190508160005260206000209050919050565b60006020601f8301049050919050565b600082821b905092915050565b600060088302620006167fffffffffffffffffffffffffffffffffffffffffffffffffffffffffffffffff82620005d7565b620006228683620005d7565b95508019841693508086168417925050509392505050565b6000819050919050565b6000819050919050565b60006200066f6200066962000663846200063a565b62000644565b6200063a565b9050919050565b6000819050919050565b6200068b836200064e565b620006a36200069a8262000676565b848454620005e4565b825550505050565b600090565b620006ba620006ab565b620006c781848462000680565b505050565b5b81811015620006ef57620006e3600082620006b0565b600181019050620006cd565b5050565b601f8211156200073e576200070881620005b2565b6200071384620005c7565b8101602085101562000723578190505b6200073b6200073285620005c7565b830182620006cc565b50505b505050565b600082821c905092915050565b6000620007636000198460080262000743565b1980831691505092915050565b60006200077e838362000750565b9150826002028217905092915050565b620007998262000514565b67ffffffffffffffff811115620007b557620007b46200051f565b5b620007c182546200057d565b620007ce828285620006f3565b600060209050601f831160018114620008065760008415620007f1578287015190505b620007fd858262000770565b8655506200086d565b601f1984166200081686620005b2565b60005b82811015620008405784890151825560018201915060208501945060208101905062000819565b868310156200086057848901516200085c601f89168262000750565b8355505b6001600288020188555050505b505050505050565b600073ffffffffffffffffffffffffffffffffffffffff82169050919050565b6000620008a28262000875565b9050919050565b620008b48162000895565b82525050565b6000602082019050620008d16000830184620008a9565b92915050565b7f4e487b7100000000000000000000000000000000000000000000000000000000600052601160045260246000fd5b60008160011c9050919050565b6000808291508390505b600185111562000965578086048111156200093d576200093c620008d7565b5b60018516156200094d5780820291505b80810290506200095d8562000906565b94506200091d565b94509492505050565b60008262000980576001905062000a53565b8162000990576000905062000a53565b8160018114620009a95760028114620009b457620009ea565b600191505062000a53565b60ff841115620009c957620009c8620008d7565b5b8360020a915084821115620009e357620009e2620008d7565b5b5062000a53565b5060208310610133831016604e8410600b841016171562000a245782820a90508381111562000a1e5762000a1d620008d7565b5b62000a53565b62000a33848484600162000913565b9250905081840481111562000a4d5762000a4c620008d7565b5b81810290505b9392505050565b600060ff82169050919050565b600062000a74826200063a565b915062000a818362000a5a565b925062000ab07fffffffffffffffffffffffffffffffffffffffffffffffffffffffffffffffff84846200096e565b905092915050565b600062000ac5826200063a565b915062000ad2836200063a565b925082820262000ae2816200063a565b9150828204841483151762000afc5762000afb620008d7565b5b5092915050565b600062000b10826200063a565b915062000b1d836200063a565b925082820190508082111562000b385762000b37620008d7565b5b92915050565b62000b49816200063a565b82525050565b600060608201905062000b666000830186620008a9565b62000b75602083018562000b3e565b62000b84604083018462000b3e565b949350505050565b600060208201905062000ba3600083018462000b3e565b92915050565b611cc68062000bb96000396000f3fe60806040526004361061011f5760003560e01c8063715018a6116100a0578063a85c38ef11610064578063a85c38ef146103a5578063a9059cbb146103e5578063dd62ed3e14610422578063f2fde38b1461045f578063f3ab90c3146104885761011f565b8063715018a6146102f357806379cc67901461030a5780638da5cb5b1461033357806395d89b411461035e5780639995bc9c146103895761011f565b8063313ce567116100e7578063313ce5671461021057806342966c681461023b5780634979a72a146102645780636311e8301461028d57806370a08231146102b65761011f565b806306fdde0314610124578063095ea7b31461014f5780630c4dfe3f1461018c57806318160ddd146101a857806323b872dd146101d3575b600080fd5b34801561013057600080fd5b506101396104b3565b60405161014691906115be565b60405180910390f35b34801561015b57600080fd5b5061017660048036038101906101719190611679565b610545565b60405161018391906116d4565b60405180910390f35b6101a660048036038101906101a191906116ef565b610568565b005b3480156101b457600080fd5b506101bd610630565b6040516101ca919061172b565b60405180910390f35b3480156101df57600080fd5b506101fa60048036038101906101f59190611746565b61063a565b60405161020791906116d4565b60405180910390f35b34801561021c57600080fd5b50610225610669565b60405161023291906117b5565b60405180910390f35b34801561024757600080fd5b50610262600480360381019061025d91906116ef565b610672565b005b34801561027057600080fd5b5061028b600480360381019061028691906116ef565b610686565b005b34801561029957600080fd5b506102b460048036038101906102af91906116ef565b610698565b005b3480156102c257600080fd5b506102dd60048036038101906102d891906117d0565b610858565b6040516102ea919061172b565b60405180910390f35b3480156102ff57600080fd5b506103086108a0565b005b34801561031657600080fd5b50610331600480360381019061032c9190611679565b6108b4565b005b34801561033f57600080fd5b506103486108d4565b604051610355919061180c565b60405180910390f35b34801561036a57600080fd5b506103736108fe565b60405161038091906115be565b60405180910390f35b6103a3600480360381019061039e9190611853565b610990565b005b3480156103b157600080fd5b506103cc60048036038101906103c791906116ef565b610b4c565b6040516103dc9493929190611893565b60405180910390f35b3480156103f157600080fd5b5061040c60048036038101906104079190611679565b610bb9565b60405161041991906116d4565b60405180910390f35b34801561042e57600080fd5b50610449600480360381019061044491906118d8565b610bdc565b604051610456919061172b565b60405180910390f35b34801561046b57600080fd5b50610486600480360381019061048191906117d0565b610c63565b005b34801561049457600080fd5b5061049d610ce9565b6040516104aa919061172b565b60405180910390f35b6060600380546104c290611947565b80601f01602080910402602001604051908101604052809291908181526020018280546104ee90611947565b801561053b5780601f106105105761010080835404028352916020019161053b565b820191906000526020600020905b81548152906001019060200180831161051e57829003601f168201915b5050505050905090565b600080610550610cef565b905061055d818585610cf7565b600191505092915050565b60008160075461057891906119a7565b90508034146105bc576040517f08c379a00000000000000000000000000000000000000000000000000000000081526004016105b390611a35565b60405180910390fd5b6105c63383610d09565b3373ffffffffffffffffffffffffffffffffffffffff16600073ffffffffffffffffffffffffffffffffffffffff167fddf252ad1be2c89b69c2b068fc378daa952ba7f163c4a11628f55a4df523b3ef84604051610624919061172b565b60405180910390a35050565b6000600254905090565b600080610645610cef565b9050610652858285610d8b565b61065d858585610e1f565b60019150509392505050565b60006012905090565b61068361067d610cef565b82610f13565b50565b61068e610f95565b8060078190555050565b6106a061101c565b6000600882815481106106b6576106b5611a55565b5b90600052602060002090600402019050600081600101541161070d576040517f08c379a000000000000000000000000000000000000000000000000000000000815260040161070490611ad0565b60405180910390fd5b8060020160009054906101000a900460ff16156107ef578060000160009054906101000a900473ffffffffffffffffffffffffffffffffffffffff1673ffffffffffffffffffffffffffffffffffffffff163373ffffffffffffffffffffffffffffffffffffffff16036107b6576040517f08c379a00000000000000000000000000000000000000000000000000000000081526004016107ad90611b62565b60405180910390fd5b6107e9338260000160009054906101000a900473ffffffffffffffffffffffffffffffffffffffff16836001015461063a565b506107fe565b6107fd338260010154610d09565b5b600081600101819055503373ffffffffffffffffffffffffffffffffffffffff16827fe5f48e2a4a303d196ad814389aa54cf34e7b1e404e740599d005907a2ca0cd6c60405160405180910390a350610855611062565b50565b60008060008373ffffffffffffffffffffffffffffffffffffffff1673ffffffffffffffffffffffffffffffffffffffff168152602001908152602001600020549050919050565b6108a8610f95565b6108b2600061106c565b565b6108c6826108c0610cef565b83610d8b565b6108d08282610f13565b5050565b6000600660009054906101000a900473ffffffffffffffffffffffffffffffffffffffff16905090565b60606004805461090d90611947565b80601f016020809104026020016040519081016040528092919081815260200182805461093990611947565b80156109865780601f1061095b57610100808354040283529160200191610986565b820191906000526020600020905b81548152906001019060200180831161096957829003601f168201915b5050505050905090565b600060088054905090506000826109a9576007546109ad565b6007545b90508215610a075780846109c191906119a7565b3414610a02576040517f08c379a00000000000000000000000000000000000000000000000000000000081526004016109f990611bce565b60405180910390fd5b610a12565b610a113385610f13565b5b600860405180608001604052803373ffffffffffffffffffffffffffffffffffffffff168152602001868152602001851515815260200183815250908060018154018082558091505060019003906000526020600020906004020160009091909190915060008201518160000160006101000a81548173ffffffffffffffffffffffffffffffffffffffff021916908373ffffffffffffffffffffffffffffffffffffffff1602179055506020820151816001015560408201518160020160006101000a81548160ff0219169083151502179055506060820151816003015550503373ffffffffffffffffffffffffffffffffffffffff16827fa8d12dd5402d0aa9ccaa7a1346ef5a510e0c3ee938c13587bf17e59671b2ebee858785604051610b3e93929190611bee565b60405180910390a350505050565b60088181548110610b5c57600080fd5b90600052602060002090600402016000915090508060000160009054906101000a900473ffffffffffffffffffffffffffffffffffffffff16908060010154908060020160009054906101000a900460ff16908060030154905084565b600080610bc4610cef565b9050610bd1818585610e1f565b600191505092915050565b6000600160008473ffffffffffffffffffffffffffffffffffffffff1673ffffffffffffffffffffffffffffffffffffffff16815260200190815260200160002060008373ffffffffffffffffffffffffffffffffffffffff1673ffffffffffffffffffffffffffffffffffffffff16815260200190815260200160002054905092915050565b610c6b610f95565b600073ffffffffffffffffffffffffffffffffffffffff168173ffffffffffffffffffffffffffffffffffffffff1603610cdd5760006040517f1e4fbdf7000000000000000000000000000000000000000000000000000000008152600401610cd4919061180c565b60405180910390fd5b610ce68161106c565b50565b60075481565b600033905090565b610d048383836001611132565b505050565b600073ffffffffffffffffffffffffffffffffffffffff168273ffffffffffffffffffffffffffffffffffffffff1603610d7b5760006040517fec442f05000000000000000000000000000000000000000000000000000000008152600401610d72919061180c565b60405180910390fd5b610d8760008383611309565b5050565b6000610d978484610bdc565b90507fffffffffffffffffffffffffffffffffffffffffffffffffffffffffffffffff8114610e195781811015610e09578281836040517ffb8f41b2000000000000000000000000000000000000000000000000000000008152600401610e0093929190611c25565b60405180910390fd5b610e1884848484036000611132565b5b50505050565b600073ffffffffffffffffffffffffffffffffffffffff168373ffffffffffffffffffffffffffffffffffffffff1603610e915760006040517f96c6fd1e000000000000000000000000000000000000000000000000000000008152600401610e88919061180c565b60405180910390fd5b600073ffffffffffffffffffffffffffffffffffffffff168273ffffffffffffffffffffffffffffffffffffffff1603610f035760006040517fec442f05000000000000000000000000000000000000000000000000000000008152600401610efa919061180c565b60405180910390fd5b610f0e838383611309565b505050565b600073ffffffffffffffffffffffffffffffffffffffff168273ffffffffffffffffffffffffffffffffffffffff1603610f855760006040517f96c6fd1e000000000000000000000000000000000000000000000000000000008152600401610f7c919061180c565b60405180910390fd5b610f9182600083611309565b5050565b610f9d610cef565b73ffffffffffffffffffffffffffffffffffffffff16610fbb6108d4565b73ffffffffffffffffffffffffffffffffffffffff161461101a57610fde610cef565b6040517f118cdaa7000000000000000000000000000000000000000000000000000000008152600401611011919061180c565b60405180910390fd5b565b600260055403611058576040517f3ee5aeb500000000000000000000000000000000000000000000000000000000815260040160405180910390fd5b6002600581905550565b6001600581905550565b6000600660009054906101000a900473ffffffffffffffffffffffffffffffffffffffff16905081600660006101000a81548173ffffffffffffffffffffffffffffffffffffffff021916908373ffffffffffffffffffffffffffffffffffffffff1602179055508173ffffffffffffffffffffffffffffffffffffffff168173ffffffffffffffffffffffffffffffffffffffff167f8be0079c531659141344cd1fd0a4f28419497f9722a3daafe3b4186f6b6457e060405160405180910390a35050565b600073ffffffffffffffffffffffffffffffffffffffff168473ffffffffffffffffffffffffffffffffffffffff16036111a45760006040517fe602df0500000000000000000000000000000000000000000000000000000000815260040161119b919061180c565b60405180910390fd5b600073ffffffffffffffffffffffffffffffffffffffff168373ffffffffffffffffffffffffffffffffffffffff16036112165760006040517f94280d6200000000000000000000000000000000000000000000000000000000815260040161120d919061180c565b60405180910390fd5b81600160008673ffffffffffffffffffffffffffffffffffffffff1673ffffffffffffffffffffffffffffffffffffffff16815260200190815260200160002060008573ffffffffffffffffffffffffffffffffffffffff1673ffffffffffffffffffffffffffffffffffffffff168152602001908152602001600020819055508015611303578273ffffffffffffffffffffffffffffffffffffffff168473ffffffffffffffffffffffffffffffffffffffff167f8c5be1e5ebec7d5bd14f71427d1e84f3dd0314c0f7b2291e5b200ac8c7c3b925846040516112fa919061172b565b60405180910390a35b50505050565b600073ffffffffffffffffffffffffffffffffffffffff168373ffffffffffffffffffffffffffffffffffffffff160361135b57806002600082825461134f9190611c5c565b9250508190555061142e565b60008060008573ffffffffffffffffffffffffffffffffffffffff1673ffffffffffffffffffffffffffffffffffffffff168152602001908152602001600020549050818110156113e7578381836040517fe450d38c0000000000000000000000000000000000000000000000000000000081526004016113de93929190611c25565b60405180910390fd5b8181036000808673ffffffffffffffffffffffffffffffffffffffff1673ffffffffffffffffffffffffffffffffffffffff16815260200190815260200160002081905550505b600073ffffffffffffffffffffffffffffffffffffffff168273ffffffffffffffffffffffffffffffffffffffff160361147757806002600082825403925050819055506114c4565b806000808473ffffffffffffffffffffffffffffffffffffffff1673ffffffffffffffffffffffffffffffffffffffff168152602001908152602001600020600082825401925050819055505b8173ffffffffffffffffffffffffffffffffffffffff168373ffffffffffffffffffffffffffffffffffffffff167fddf252ad1be2c89b69c2b068fc378daa952ba7f163c4a11628f55a4df523b3ef83604051611521919061172b565b60405180910390a3505050565b600081519050919050565b600082825260208201905092915050565b60005b8381101561156857808201518184015260208101905061154d565b60008484015250505050565b6000601f19601f8301169050919050565b60006115908261152e565b61159a8185611539565b93506115aa81856020860161154a565b6115b381611574565b840191505092915050565b600060208201905081810360008301526115d88184611585565b905092915050565b600080fd5b600073ffffffffffffffffffffffffffffffffffffffff82169050919050565b6000611610826115e5565b9050919050565b61162081611605565b811461162b57600080fd5b50565b60008135905061163d81611617565b92915050565b6000819050919050565b61165681611643565b811461166157600080fd5b50565b6000813590506116738161164d565b92915050565b600080604083850312156116905761168f6115e0565b5b600061169e8582860161162e565b92505060206116af85828601611664565b9150509250929050565b60008115159050919050565b6116ce816116b9565b82525050565b60006020820190506116e960008301846116c5565b92915050565b600060208284031215611705576117046115e0565b5b600061171384828501611664565b91505092915050565b61172581611643565b82525050565b6000602082019050611740600083018461171c565b92915050565b60008060006060848603121561175f5761175e6115e0565b5b600061176d8682870161162e565b935050602061177e8682870161162e565b925050604061178f86828701611664565b9150509250925092565b600060ff82169050919050565b6117af81611799565b82525050565b60006020820190506117ca60008301846117a6565b92915050565b6000602082840312156117e6576117e56115e0565b5b60006117f48482850161162e565b91505092915050565b61180681611605565b82525050565b600060208201905061182160008301846117fd565b92915050565b611830816116b9565b811461183b57600080fd5b50565b60008135905061184d81611827565b92915050565b6000806040838503121561186a576118696115e0565b5b600061187885828601611664565b92505060206118898582860161183e565b9150509250929050565b60006080820190506118a860008301876117fd565b6118b5602083018661171c565b6118c260408301856116c5565b6118cf606083018461171c565b95945050505050565b600080604083850312156118ef576118ee6115e0565b5b60006118fd8582860161162e565b925050602061190e8582860161162e565b9150509250929050565b7f4e487b7100000000000000000000000000000000000000000000000000000000600052602260045260246000fd5b6000600282049050600182168061195f57607f821691505b60208210810361197257611971611918565b5b50919050565b7f4e487b7100000000000000000000000000000000000000000000000000000000600052601160045260246000fd5b60006119b282611643565b91506119bd83611643565b92508282026119cb81611643565b915082820484148315176119e2576119e1611978565b5b5092915050565b7f496e636f72726563742045544820616d6f756e74000000000000000000000000600082015250565b6000611a1f601483611539565b9150611a2a826119e9565b602082019050919050565b60006020820190508181036000830152611a4e81611a12565b9050919050565b7f4e487b7100000000000000000000000000000000000000000000000000000000600052603260045260246000fd5b7f4f7264657220616c72656164792066756c66696c6c6564000000000000000000600082015250565b6000611aba601783611539565b9150611ac582611a84565b602082019050919050565b60006020820190508181036000830152611ae981611aad565b9050919050565b7f4f726465722063726561746f722063616e6e6f742066756c66696c6c2074686560008201527f6972206f776e20627579206f7264657200000000000000000000000000000000602082015250565b6000611b4c603083611539565b9150611b5782611af0565b604082019050919050565b60006020820190508181036000830152611b7b81611b3f565b9050919050565b7f496e636f72726563742076616c75652073656e74000000000000000000000000600082015250565b6000611bb8601483611539565b9150611bc382611b82565b602082019050919050565b60006020820190508181036000830152611be781611bab565b9050919050565b6000606082019050611c0360008301866116c5565b611c10602083018561171c565b611c1d604083018461171c565b949350505050565b6000606082019050611c3a60008301866117fd565b611c47602083018561171c565b611c54604083018461171c565b949350505050565b6000611c6782611643565b9150611c7283611643565b9250828201905080821115611c8a57611c89611978565b5b9291505056fea26469706673582212204f141a6cd14dc610d9020976efaec56a1ac77bd5fc9fe5e93f70267244d37d5764736f6c63430008140033",
  "linkReferences": {},
  "deployedLinkReferences": {}
}